{
  "_format": "hh-sol-artifact-1",
  "contractName": "Verify",
  "sourceName": "contracts/Verify.sol",
  "abi": [
    {
      "inputs": [
        {
          "internalType": "address",
          "name": "_nft1",
          "type": "address"
        },
        {
          "internalType": "address",
          "name": "_nft2",
          "type": "address"
        },
        {
          "internalType": "address",
          "name": "wormhole_",
          "type": "address"
        },
        {
          "internalType": "uint16",
          "name": "chainId_",
          "type": "uint16"
        },
        {
          "internalType": "uint8",
          "name": "wormholeFinality_",
          "type": "uint8"
        }
      ],
      "stateMutability": "nonpayable",
      "type": "constructor"
    },
    {
      "inputs": [],
      "name": "chainId",
      "outputs": [
        {
          "internalType": "uint16",
          "name": "",
          "type": "uint16"
        }
      ],
      "stateMutability": "view",
      "type": "function"
    },
    {
      "inputs": [
        {
          "components": [
            {
              "internalType": "bytes32",
              "name": "account",
              "type": "bytes32"
            },
            {
              "internalType": "address",
              "name": "nft",
              "type": "address"
            },
            {
              "internalType": "uint16",
              "name": "id",
              "type": "uint16"
            }
          ],
          "internalType": "struct VerifyStructs.VerifyMessage",
          "name": "parsedMessage",
          "type": "tuple"
        }
      ],
      "name": "encodeMessage",
      "outputs": [
        {
          "internalType": "bytes",
          "name": "encodedMessage",
          "type": "bytes"
        }
      ],
      "stateMutability": "pure",
      "type": "function"
    },
    {
      "inputs": [
        {
          "internalType": "bytes32",
          "name": "hash",
          "type": "bytes32"
        }
      ],
      "name": "getReceivedMessage",
      "outputs": [
        {
          "internalType": "string",
          "name": "",
          "type": "string"
        }
      ],
      "stateMutability": "view",
      "type": "function"
    },
    {
      "inputs": [
        {
          "internalType": "uint16",
          "name": "emitterChainId",
          "type": "uint16"
        }
      ],
      "name": "getRegisteredEmitter",
      "outputs": [
        {
          "internalType": "bytes32",
          "name": "",
          "type": "bytes32"
        }
      ],
      "stateMutability": "view",
      "type": "function"
    },
    {
      "inputs": [
        {
          "internalType": "bytes32",
          "name": "hash",
          "type": "bytes32"
        }
      ],
      "name": "isMessageConsumed",
      "outputs": [
        {
          "internalType": "bool",
          "name": "",
          "type": "bool"
        }
      ],
      "stateMutability": "view",
      "type": "function"
    },
    {
      "inputs": [],
      "name": "nft1",
      "outputs": [
        {
          "internalType": "address",
          "name": "",
          "type": "address"
        }
      ],
      "stateMutability": "view",
      "type": "function"
    },
    {
      "inputs": [],
      "name": "nft2",
      "outputs": [
        {
          "internalType": "address",
          "name": "",
          "type": "address"
        }
      ],
      "stateMutability": "view",
      "type": "function"
    },
    {
      "inputs": [],
      "name": "owner",
      "outputs": [
        {
          "internalType": "address",
          "name": "",
          "type": "address"
        }
      ],
      "stateMutability": "view",
      "type": "function"
    },
    {
      "inputs": [
        {
          "components": [
            {
              "internalType": "bytes32",
              "name": "account",
              "type": "bytes32"
            },
            {
              "internalType": "address",
              "name": "nft",
              "type": "address"
            },
            {
              "internalType": "uint16",
              "name": "id",
              "type": "uint16"
            }
          ],
          "internalType": "struct Verify.Message[]",
          "name": "messages",
          "type": "tuple[]"
        }
      ],
      "name": "verify",
      "outputs": [],
      "stateMutability": "payable",
      "type": "function"
    },
    {
      "inputs": [],
      "name": "wormhole",
      "outputs": [
        {
          "internalType": "contract IWormhole",
          "name": "",
          "type": "address"
        }
      ],
      "stateMutability": "view",
      "type": "function"
    },
    {
      "inputs": [],
      "name": "wormholeFinality",
      "outputs": [
        {
          "internalType": "uint8",
          "name": "",
          "type": "uint8"
        }
      ],
      "stateMutability": "view",
      "type": "function"
    }
  ],
  "bytecode": "0x60806040523480156200001157600080fd5b5060405162001a6b38038062001a6b8339818101604052810190620000379190620003c5565b84600560006101000a81548173ffffffffffffffffffffffffffffffffffffffff021916908373ffffffffffffffffffffffffffffffffffffffff16021790555083600660006101000a81548173ffffffffffffffffffffffffffffffffffffffff021916908373ffffffffffffffffffffffffffffffffffffffff160217905550600073ffffffffffffffffffffffffffffffffffffffff168373ffffffffffffffffffffffffffffffffffffffff16036200012b576040517f08c379a00000000000000000000000000000000000000000000000000000000081526004016200012290620004ae565b60405180910390fd5b60008261ffff161162000175576040517f08c379a00000000000000000000000000000000000000000000000000000000081526004016200016c9062000520565b60405180910390fd5b60008160ff1611620001be576040517f08c379a0000000000000000000000000000000000000000000000000000000008152600401620001b59062000592565b60405180910390fd5b620001cf336200020d60201b60201c565b620001e0836200025360201b60201c565b620001f1826200029a60201b60201c565b6200020281620002bd60201b60201c565b5050505050620005b4565b806000800160006101000a81548173ffffffffffffffffffffffffffffffffffffffff021916908373ffffffffffffffffffffffffffffffffffffffff16021790555050565b80600060010160006101000a81548173ffffffffffffffffffffffffffffffffffffffff021916908373ffffffffffffffffffffffffffffffffffffffff16021790555050565b80600060010160146101000a81548161ffff021916908361ffff16021790555050565b80600060010160166101000a81548160ff021916908360ff16021790555050565b600080fd5b600073ffffffffffffffffffffffffffffffffffffffff82169050919050565b60006200031082620002e3565b9050919050565b620003228162000303565b81146200032e57600080fd5b50565b600081519050620003428162000317565b92915050565b600061ffff82169050919050565b620003618162000348565b81146200036d57600080fd5b50565b600081519050620003818162000356565b92915050565b600060ff82169050919050565b6200039f8162000387565b8114620003ab57600080fd5b50565b600081519050620003bf8162000394565b92915050565b600080600080600060a08688031215620003e457620003e3620002de565b5b6000620003f48882890162000331565b9550506020620004078882890162000331565b94505060406200041a8882890162000331565b93505060606200042d8882890162000370565b92505060806200044088828901620003ae565b9150509295509295909350565b600082825260208201905092915050565b7f696e76616c696420576f726d686f6c6520616464726573730000000000000000600082015250565b6000620004966018836200044d565b9150620004a3826200045e565b602082019050919050565b60006020820190508181036000830152620004c98162000487565b9050919050565b7f696e76616c696420636861696e49640000000000000000000000000000000000600082015250565b600062000508600f836200044d565b91506200051582620004d0565b602082019050919050565b600060208201905081810360008301526200053b81620004f9565b9050919050565b7f696e76616c696420776f726d686f6c6546696e616c6974790000000000000000600082015250565b60006200057a6018836200044d565b9150620005878262000542565b602082019050919050565b60006020820190508181036000830152620005ad816200056b565b9050919050565b6114a780620005c46000396000f3fe60806040526004361061009c5760003560e01c80638da5cb5b116100645780638da5cb5b146101ae5780639a8a0592146101d9578063acd731e614610204578063b13ca86b1461022f578063cd812d671461025a578063d65c7f0c146102765761009c565b80630520557b146100a15780631b6e4ab6146100cc57806324816abb14610109578063470feb871461014657806384acd1bb14610183575b600080fd5b3480156100ad57600080fd5b506100b66102b3565b6040516100c39190610931565b60405180910390f35b3480156100d857600080fd5b506100f360048036038101906100ee9190610996565b6102cc565b6040516101009190610a53565b60405180910390f35b34801561011557600080fd5b50610130600480360381019061012b9190610aaf565b610374565b60405161013d9190610aeb565b60405180910390f35b34801561015257600080fd5b5061016d60048036038101906101689190610996565b61039b565b60405161017a9190610b21565b60405180910390f35b34801561018f57600080fd5b506101986103c7565b6040516101a59190610bbb565b60405180910390f35b3480156101ba57600080fd5b506101c36103f3565b6040516101d09190610bf7565b60405180910390f35b3480156101e557600080fd5b506101ee61041f565b6040516101fb9190610c21565b60405180910390f35b34801561021057600080fd5b50610219610439565b6040516102269190610bf7565b60405180910390f35b34801561023b57600080fd5b5061024461045f565b6040516102519190610bf7565b60405180910390f35b610274600480360381019061026f9190610e19565b610485565b005b34801561028257600080fd5b5061029d60048036038101906102989190610ec6565b610596565b6040516102aa9190610f48565b60405180910390f35b60008060010160169054906101000a900460ff16905090565b60606000600301600083815260200190815260200160002080546102ef90610f99565b80601f016020809104026020016040519081016040528092919081815260200182805461031b90610f99565b80156103685780601f1061033d57610100808354040283529160200191610368565b820191906000526020600020905b81548152906001019060200180831161034b57829003601f168201915b50505050509050919050565b60008060020160008361ffff1661ffff168152602001908152602001600020549050919050565b600080600401600083815260200190815260200160002060009054906101000a900460ff169050919050565b60008060010160009054906101000a900473ffffffffffffffffffffffffffffffffffffffff16905090565b60008060000160009054906101000a900473ffffffffffffffffffffffffffffffffffffffff16905090565b60008060010160149054906101000a900461ffff16905090565b600560009054906101000a900473ffffffffffffffffffffffffffffffffffffffff1681565b600660009054906101000a900473ffffffffffffffffffffffffffffffffffffffff1681565b600061048f6103c7565b905060008173ffffffffffffffffffffffffffffffffffffffff16631a90a2196040518163ffffffff1660e01b8152600401602060405180830381865afa1580156104de573d6000803e3d6000fd5b505050506040513d601f19601f820116820180604052508101906105029190611000565b9050825181610511919061105c565b341015610553576040517f08c379a000000000000000000000000000000000000000000000000000000000815260040161054a906110ea565b60405180910390fd5b60005b8351811015610590576105828482815181106105755761057461110a565b5b60200260200101516105cf565b508080600101915050610556565b50505050565b60608160000151826020015183604001516040516020016105b9939291906111d8565b6040516020818303038152906040529050919050565b6000600560009054906101000a900473ffffffffffffffffffffffffffffffffffffffff1673ffffffffffffffffffffffffffffffffffffffff16826020015173ffffffffffffffffffffffffffffffffffffffff1614806106825750600660009054906101000a900473ffffffffffffffffffffffffffffffffffffffff1673ffffffffffffffffffffffffffffffffffffffff16826020015173ffffffffffffffffffffffffffffffffffffffff16145b6106c1576040517f08c379a00000000000000000000000000000000000000000000000000000000081526004016106b890611261565b60405180910390fd5b3373ffffffffffffffffffffffffffffffffffffffff16826020015173ffffffffffffffffffffffffffffffffffffffff16636352211e84604001516040518263ffffffff1660e01b815260040161071991906112b2565b602060405180830381865afa158015610736573d6000803e3d6000fd5b505050506040513d601f19601f8201168201806040525081019061075a91906112e2565b73ffffffffffffffffffffffffffffffffffffffff16146107b0576040517f08c379a00000000000000000000000000000000000000000000000000000000081526004016107a79061135b565b60405180910390fd5b60006107ba6103c7565b905060008173ffffffffffffffffffffffffffffffffffffffff16631a90a2196040518163ffffffff1660e01b8152600401602060405180830381865afa158015610809573d6000803e3d6000fd5b505050506040513d601f19601f8201168201806040525081019061082d9190611000565b90506000604051806060016040528086600001518152602001866020015173ffffffffffffffffffffffffffffffffffffffff168152602001866040015161ffff168152509050600061087f82610596565b90508373ffffffffffffffffffffffffffffffffffffffff1663b19a437e846000846108a96102b3565b6040518563ffffffff1660e01b81526004016108c7939291906113c6565b60206040518083038185885af11580156108e5573d6000803e3d6000fd5b50505050506040513d601f19601f8201168201806040525081019061090a9190611444565b945050505050919050565b600060ff82169050919050565b61092b81610915565b82525050565b60006020820190506109466000830184610922565b92915050565b6000604051905090565b600080fd5b600080fd5b6000819050919050565b61097381610960565b811461097e57600080fd5b50565b6000813590506109908161096a565b92915050565b6000602082840312156109ac576109ab610956565b5b60006109ba84828501610981565b91505092915050565b600081519050919050565b600082825260208201905092915050565b60005b838110156109fd5780820151818401526020810190506109e2565b60008484015250505050565b6000601f19601f8301169050919050565b6000610a25826109c3565b610a2f81856109ce565b9350610a3f8185602086016109df565b610a4881610a09565b840191505092915050565b60006020820190508181036000830152610a6d8184610a1a565b905092915050565b600061ffff82169050919050565b610a8c81610a75565b8114610a9757600080fd5b50565b600081359050610aa981610a83565b92915050565b600060208284031215610ac557610ac4610956565b5b6000610ad384828501610a9a565b91505092915050565b610ae581610960565b82525050565b6000602082019050610b006000830184610adc565b92915050565b60008115159050919050565b610b1b81610b06565b82525050565b6000602082019050610b366000830184610b12565b92915050565b600073ffffffffffffffffffffffffffffffffffffffff82169050919050565b6000819050919050565b6000610b81610b7c610b7784610b3c565b610b5c565b610b3c565b9050919050565b6000610b9382610b66565b9050919050565b6000610ba582610b88565b9050919050565b610bb581610b9a565b82525050565b6000602082019050610bd06000830184610bac565b92915050565b6000610be182610b3c565b9050919050565b610bf181610bd6565b82525050565b6000602082019050610c0c6000830184610be8565b92915050565b610c1b81610a75565b82525050565b6000602082019050610c366000830184610c12565b92915050565b600080fd5b7f4e487b7100000000000000000000000000000000000000000000000000000000600052604160045260246000fd5b610c7982610a09565b810181811067ffffffffffffffff82111715610c9857610c97610c41565b5b80604052505050565b6000610cab61094c565b9050610cb78282610c70565b919050565b600067ffffffffffffffff821115610cd757610cd6610c41565b5b602082029050602081019050919050565b600080fd5b600080fd5b610cfb81610bd6565b8114610d0657600080fd5b50565b600081359050610d1881610cf2565b92915050565b600060608284031215610d3457610d33610ced565b5b610d3e6060610ca1565b90506000610d4e84828501610981565b6000830152506020610d6284828501610d09565b6020830152506040610d7684828501610a9a565b60408301525092915050565b6000610d95610d9084610cbc565b610ca1565b90508083825260208201905060608402830185811115610db857610db7610ce8565b5b835b81811015610de15780610dcd8882610d1e565b845260208401935050606081019050610dba565b5050509392505050565b600082601f830112610e0057610dff610c3c565b5b8135610e10848260208601610d82565b91505092915050565b600060208284031215610e2f57610e2e610956565b5b600082013567ffffffffffffffff811115610e4d57610e4c61095b565b5b610e5984828501610deb565b91505092915050565b600060608284031215610e7857610e77610ced565b5b610e826060610ca1565b90506000610e9284828501610981565b6000830152506020610ea684828501610d09565b6020830152506040610eba84828501610a9a565b60408301525092915050565b600060608284031215610edc57610edb610956565b5b6000610eea84828501610e62565b91505092915050565b600081519050919050565b600082825260208201905092915050565b6000610f1a82610ef3565b610f248185610efe565b9350610f348185602086016109df565b610f3d81610a09565b840191505092915050565b60006020820190508181036000830152610f628184610f0f565b905092915050565b7f4e487b7100000000000000000000000000000000000000000000000000000000600052602260045260246000fd5b60006002820490506001821680610fb157607f821691505b602082108103610fc457610fc3610f6a565b5b50919050565b6000819050919050565b610fdd81610fca565b8114610fe857600080fd5b50565b600081519050610ffa81610fd4565b92915050565b60006020828403121561101657611015610956565b5b600061102484828501610feb565b91505092915050565b7f4e487b7100000000000000000000000000000000000000000000000000000000600052601160045260246000fd5b600061106782610fca565b915061107283610fca565b925082820261108081610fca565b915082820484148315176110975761109661102d565b5b5092915050565b7f696e73756666696369656e742076616c75650000000000000000000000000000600082015250565b60006110d46012836109ce565b91506110df8261109e565b602082019050919050565b60006020820190508181036000830152611103816110c7565b9050919050565b7f4e487b7100000000000000000000000000000000000000000000000000000000600052603260045260246000fd5b6000819050919050565b61115461114f82610960565b611139565b82525050565b60008160601b9050919050565b60006111728261115a565b9050919050565b600061118482611167565b9050919050565b61119c61119782610bd6565b611179565b82525050565b60008160f01b9050919050565b60006111ba826111a2565b9050919050565b6111d26111cd82610a75565b6111af565b82525050565b60006111e48286611143565b6020820191506111f4828561118b565b60148201915061120482846111c1565b600282019150819050949350505050565b7f73686974206e6674000000000000000000000000000000000000000000000000600082015250565b600061124b6008836109ce565b915061125682611215565b602082019050919050565b6000602082019050818103600083015261127a8161123e565b9050919050565b600061129c61129761129284610a75565b610b5c565b610fca565b9050919050565b6112ac81611281565b82525050565b60006020820190506112c760008301846112a3565b92915050565b6000815190506112dc81610cf2565b92915050565b6000602082840312156112f8576112f7610956565b5b6000611306848285016112cd565b91505092915050565b7f6e6f74206f776e65720000000000000000000000000000000000000000000000600082015250565b60006113456009836109ce565b91506113508261130f565b602082019050919050565b6000602082019050818103600083015261137481611338565b9050919050565b6000819050919050565b600063ffffffff82169050919050565b60006113b06113ab6113a68461137b565b610b5c565b611385565b9050919050565b6113c081611395565b82525050565b60006060820190506113db60008301866113b7565b81810360208301526113ed8185610f0f565b90506113fc6040830184610922565b949350505050565b600067ffffffffffffffff82169050919050565b61142181611404565b811461142c57600080fd5b50565b60008151905061143e81611418565b92915050565b60006020828403121561145a57611459610956565b5b60006114688482850161142f565b9150509291505056fea26469706673582212209b2189e232b4bb6e1777d2f08c1fafaa3a6909dbf8e64e7c3b4ce23f3d44a9d864736f6c63430008180033",
  "linkReferences": {},
  "deployedLinkReferences": {}
}